:020000040800F2
:1000000000180020393A0008D9390008DB39000807
:1000100000000000000000000000000000000000E0
:10002000000000000000000000000000DD390008B2
:100030000000000000000000DF390008E13900087E
:10004000893A000800000000893A0008893A00084F
:10005000893A0008893A0008893A0008893A000874
:1000600000000000E9390008893A0008893A0008D0
:10007000893A0008893A0008F939000800000000B0
:10008000093A00080000000000000000193A0008CA
:1000900000000000893A0008893A0008893A0008FF
:1000A00000000000893A000800000000893A0008BA
:1000B000893A000800000000000000000000000075
:1000C00010B5064C2378002B07D1054B002B02D02E
:1000D000044800E000BF0123237010BD6000002031
:1000E00000000000045C0008044B10B5002B03D096
:1000F0000349044800E000BF10BDC04600000000F6
:1001000064000020045C0008002243088B4274D382
:1001100003098B425FD3030A8B4244D3030B8B4208
:1001200028D3030C8B420DD3FF22090212BA030C11
:100130008B4202D31212090265D0030B8B4219D3F2
:1001400000E0090AC30B8B4201D3CB03C01A524112
:10015000830B8B4201D38B03C01A5241430B8B425A
:1001600001D34B03C01A5241030B8B4201D30B0343
:10017000C01A5241C30A8B4201D3CB02C01A52416A
:10018000830A8B4201D38B02C01A5241430A8B422D
:1001900001D34B02C01A5241030A8B4201D30B0216
:1001A000C01A5241CDD2C3098B4201D3CB01C01A30
:1001B000524183098B4201D38B01C01A524143093A
:1001C0008B4201D34B01C01A524103098B4201D328
:1001D0000B01C01A5241C3088B4201D3CB00C01A95
:1001E000524183088B4201D38B00C01A524143080D
:1001F0008B4201D34B00C01A5241411A00D2014632
:10020000524110467047FFE701B5002000F006F8A4
:1002100002BDC0460029F7D076E770477047C04658
:100220008446100062468C461900634600E0C046D2
:100230001FB501F0D9FE002801D40021C8421FBD1E
:1002400010B501F019FE4042013010BD10B501F0AB
:10025000CBFE002801DB002010BD012010BDC046F0
:1002600010B501F0C1FE002801DD002010BD012005
:1002700010BDC04610B501F043FE002801DC00208F
:1002800010BD012010BDC04610B501F039FE002898
:1002900001DA002010BD012010BDC04684460800D0
:1002A0006146FFE71FB500F08BFB002801D4002159
:1002B000C8421FBD10B500F00BFB4042013010BD1D
:1002C00010B500F07DFB002801DB002010BD0120EF
:1002D00010BDC04610B500F073FB002801DD002002
:1002E00010BD012010BDC04610B500F019FB00285C
:1002F00001DC002010BD012010BDC04610B500F08B
:100300000FFB002801DA002010BD012010BDC046FF
:100310009E2110B5C905041CFFF7F0FF002803D18A
:10032000201C00F07DFE10BD9E21201CC90500F0A0
:10033000D3FC00F075FE80231B069C466044F2E768
:1003400070B500220C4B04000D00FFF79DFF002844
:1003500004D12000290002F03FFD70BD064B0022B1
:100360002000290002F07AF902F036FD80231B06F6
:100370009C466044F1E7C0460000E041F8B5CE4637
:10038000474643025A0A4E024500C40F48009146B0
:100390002D0E720A000E944680B59B09C90FB6094E
:1003A0002A1A8C4221D0002A0DDD00282DD1002EE2
:1003B00000D18DE0511E012A00D11DE1FF2A00D19C
:1003C000ABE00A0027E0002A4DD0421B002D00D0F0
:1003D000CCE0002B00D179E0541E012A00D128E1A5
:1003E000FF2A00D197E02200C5E0002A00DC96E059
:1003F00000284FD0FF2D00D18FE08021C9040E438B
:100400001B2A51DD2A00013318E0FF2D00D184E0C2
:100410008021C9040E4301211B2A08DC3100202061
:10042000D140821A96403200501E824111435B1A1D
:100430005A0159D407212A00194049D00F211940E7
:10044000042900D00433590142D5501CFE2A3AD069
:100450009B01C0B25B0AC0051843E4072043C0BC3F
:10046000B946B046F8BDFE2080466F1C38004746AE
:10047000074200D08EE0002D00D0B4E0002B00D168
:10048000DBE0002E6CD0981B450100D4F7E00C0097
:10049000F31A3DE0002E1BD0511E012A00D182E04C
:1004A000FF2A3AD00A00ABE731002020D140821A5F
:1004B00096403200501E82410A439B185A01B9D51A
:1004C0006A1CFE2D75D1FF200023C4E70C00330009
:1004D000DB08FF2A46D1002BF5D08022D20313433C
:1004E0005B02FF205B0AB6E79F01BF09380002F0FC
:1004F000A9FD05388740854224DC3B002021421BB2
:100500000132D3408A1A97407A1E974100223B431A
:10051000590793D197E70C003300DB08DBE7002A8B
:1005200014D0421B002D4BD1002BD0D0511E012ADC
:1005300000D19EE0FF2AEFD00A001B2A5FDD0200F7
:10054000731C7BE7504B2A1A3B40E1E7FE216A1CF3
:1005500011423BD1002D5DD1002B7FD0002E7FD1E9
:100560000022DB085B025B0AD0B274E7FF28D2D01E
:100570008024E404234301241B2A07DC1C002025DB
:10058000D440AA1A93405A1E93411C43331B0500C2
:100590000C004DE79F1B7A0122D4002FA6D1002426
:1005A0000020002357E79B1901250132590100D48F
:1005B00040E70121354819405B0803400B43A7E79A
:1005C000FF28A9D08021C9040B43B6E7FF2A00D138
:1005D00079E79B195B08590700D02FE7DB08C1E7D3
:1005E0000C00F71A82E7002B2CD1002E93D1802328
:1005F0000024FF20DB032EE701259B1B18E71900D1
:100600002025D140AA1A93405A1E93410B4305005E
:100610009B1953E7002B00D17EE7002E00D17CE729
:100620008022D203914502D3944500D23300DB08E7
:1006300053E70C00F31A0135FAE6002EAFD00C0098
:1006400033008DE7002E00D167E78022D203914569
:10065000EDD39445EBD20C003300E8E733007FE79D
:100660009B1900225901B9D5074A1340DB08012222
:1006700078E79B190132013559019AD4DAE6031E55
:100680008DD0DB086EE7C046FFFFFFFBFFFFFF7D5D
:10069000F0B54F464646D6464402C0B547000E1C4C
:1006A000640A3F0EC50F002F3CD0FF2F42D000231D
:1006B000802299469A46E400D20414437F3F730295
:1006C0005B0A984673001B0EF60F002B1BD0FF2B06
:1006D00013D042468021D200C9041143884600202D
:1006E0007F3B2900FF1A4B467140C9B20F2B00D93E
:1006F000B5E0744A9B00D3589F464346002B3FD138
:10070000FF3F023303E04346002B2DD10123290094
:100710004A467140C9B21A430E2A38D86A48920034
:1007200082589746002C13D104239946033B002797
:100730009A46C4E7002C05D108239946063BFF27BB
:100740009A46BCE70C239946093BFF279A46B6E731
:10075000200002F077FC7627431F9C4000237F4255
:1007600099469A463F1AAAE7404602F06BFC424679
:10077000431F9A4076235B421B1A90460020B0E745
:1007800003234A461A4391460320FC33A9E70D0090
:10079000FF200022C005ED0710432843E0BCBA4605
:1007A000B146A846F0BD0D0000200022F2E75346F6
:1007B000022BEDD0032B33D0A046012B05D1002016
:1007C0000022E7E7350003287AD03B007F33002B77
:1007D0002DDD4246520707D00F2241460A40042A27
:1007E00002D004229446E0444246120105D5424616
:1007F000364B1A403B0090468033FE2BC8DC424605
:100800009201520AD8B2C5E780220025FF20D20308
:10081000C0E78022D203144202D04346134249D09B
:100820008022D20322435202FF20520AB2E7012261
:10083000D31A1B2BC3DC4246DA4043469E37BB40EB
:10084000591E8B411A43530704D00F231340042B26
:1008500000D00432530129D5012000229AE74246F4
:1008600063015501AB4215D21B200022013F012636
:100870001C0052005B00002C01DB9D4201D85B1B79
:10088000324301380028F3D1581E83411343984660
:100890000D009AE71A2001225B1BE8E7023B5A424F
:1008A00053415B4235000022D8B273E79201002029
:1008B000520A6FE71A4352023500FF20520A69E7D5
:1008C0004446ADE72C5C00086C5C0008FFFFFFF7B6
:1008D00070B542004E024C0045026D0A120EC30F65
:1008E000760A240EC90FFF2A10D0FF2C0CD001204D
:1008F000A2420AD1B54208D18B420FD0002A04D1BE
:100900002800431E984100E0012070BD0120FF2C0B
:10091000FBD13543F9D14B401800F6E70020F4E74E
:1009200030B5420044024D02C30F4800640A120E63
:100930006D0A000EC90FFF2A19D0FF280BD0002A1C
:100940001ED100280BD1002D27D0002C34D1002936
:100950002FD0080030BD002D28D1002A01D1002C55
:10096000F5D08B4207D1002B23D01800F2E7002CE2
:100970001CD1FF2814D0581E022318400138E9E783
:100980000028F8D08B42F6D18242F4DCEBDBAC429B
:10099000F1D80020AC42DDD2E5E7002CDAD0EAE75E
:1009A000002D03D18B42E6D10020D3E70220404244
:1009B000D0E701204042CDE78B42E8D0DBE7C046DC
:1009C00030B5420044024D02C30F4800640A120EC3
:1009D0006D0A000EC90FFF2A1AD0FF280ED0002A78
:1009E0001ED100280ED1002D2AD0002C0CD08B4215
:1009F0001DD0581E02231840013810E0002D0DD1E3
:100A0000002A20D1002C1ED1002923D0080006E0A6
:100A1000002C03D1FF28ECD1002D17D0022030BDCF
:100A20000028E6D08B42E4D18242E2DC04DBAC4217
:100A3000DFD80020AC42F2D2002B0BD01800EEE73A
:100A4000002CECD0D5E78B42D3D1F5E700208B42C8
:100A5000E5D0CEE701204042E1E7C046F0B54F4681
:100A60004646D64643025B0A4500C0B599460F1C70
:100A70002D0EC60F002D00D188E0FF2D00D18DE096
:100A80008022DB00D2041A430023914698469A46FE
:100A90007F3D7C027B00640A1B0EFF0F002B68D099
:100AA000FF2B21D08022E400D204144342467F3B36
:100AB0005B1900215D1C0A2A2EDC7E404246022A78
:100AC00023DC013A012A00D9BDE002296ED00129B8
:100AD0002CD100200022C005F60710433043E0BCB3
:100AE000BA46B146A846F0BD2B00FF33002C65D0B6
:100AF0000322414611433200013588467A40FF35D2
:100B00000A2900DDD8E01600032140460122824078
:100B1000A620C000024220D05346022B46D0032B11
:100B200000D1BBE051464C460129D2D02B007F3387
:100B3000002B70DD620704D00F222240042A00D06F
:100B40000434220103D5634B1C402B008033FE2B61
:100B50002CDCA201520AD8B2BDE7902080000242EC
:100B600027D1B938FF3810426DD03E00A1468A46E1
:100B7000D2E7002C41D1012342461A4390462B0074
:100B8000424601215D1C0A2A97DDC5E7002B26D1CC
:100B900004239846033B00259A467AE7002B18D198
:100BA00008239846063BFF259A4672E7FF2000225D
:100BB00091E780220026FF20D2038CE741460222E3
:100BC000013511438846FF350A29A5DC02217E4004
:100BD00074E70C239846093BFF259A4659E718000D
:100BE00002F030FA4A46431F76259A4000236D42B0
:100BF000914698469A462D1A4BE7200002F022FAB9
:100C00004246431F9C402B1A763B00215D1C0A2A5A
:100C100000DC52E780E70122D31A1B2B00DD58E7E6
:100C20009E352200AC40DA40631E9C4122435307AC
:100C300004D00F231340042B00D00432530137D5C6
:100C40000120002247E7210C4A462404240C2700F7
:100C5000100C1204120C44435743484351433A0CBE
:100C600009195218944203D9802149028C466044E4
:100C70003F0411043F0CC9198C01671EBC41120CC2
:100C8000890E12180C439201144312010ED5012350
:100C900062081C40144349E73E00A14680224B46AF
:100CA000D2031A435202FF20520A14E71D003DE707
:100CB00092010020520A0EE70F29EDD180224B4607
:100CC000D2031342EAD01442E8D13E00FF2022436F
:100CD00001E7C046FFFFFFF7F8B54746CE464E0294
:100CE00043024500720AC40F480080B594465F0A6B
:100CF0002D0E9B09000EC90FB609FF2824D0012232
:100D000051402A1A8C420FD0002A00DC6AE10028E8
:100D100035D1002E00D1A2E0511E012A00D124E1DC
:100D2000FF2A21D00A002FE0002A00DC67E100281A
:100D30005ED0FF2D18D08021C9040E431B2A00DC91
:100D400076E02A00013332E02A00FF3A9146002E75
:100D500042D08C4255D04A46002A00D19CE0002D5A
:100D600000D177E00C003300DB08002B00D16EE0EF
:100D70008022D20313435B02FF205B0A24E0FF2D95
:100D8000F2D08021C9040E4301211B2A08DC310066
:100D90002020D140821A96403200501E82411143D9
:100DA0005B1A5A0160D407212A00194057D00F213D
:100DB0001940042900D00433590150D5501CFE2A93
:100DC00045D09B01C0B25B0AC0051843E40720432D
:100DD000C0BCB946B046F8BD012251408C42BAD1E0
:100DE0004A46002A10D0002D00D198E00023BBE72E
:100DF000002E34D0511E012A6ED0FF2AB4D00A0032
:100E00009CE7002A00D088E0FE206A1C104200D037
:100E100092E0002D00D0A4E0002B00D1CBE0002E0A
:100E200000D0CAE00022DB085B025B0AD0B2CBE74D
:100E300031002020D140821A96403200501E82415B
:100E40000A439B185A01AED56A1CFE2D4AD1FF20D9
:100E50000023B9E7FF22002B4BD10C003300DB0845
:100E6000FF2A00D181E7DFE79F01BF09380002F0C8
:100E7000E9F805388740854221DC3B002021421BF0
:100E80000132D3408A1A97407A1E974100223B4391
:100E9000590700D08BE78FE7FE206A1C104212D161
:100EA000002D52D1002B7CD0002EBBD09A1B5001BC
:100EB00000D48BE001240022F31A0C40E8E7564BE3
:100EC0002A1A3B40E4E79F1B7A0146D4002FCDD17C
:100ED00000240020002377E79B19012501325901E6
:100EE00000D460E701214D4819405B0803400B43E3
:100EF000CEE7571E012A5AD00C00FF2A33D0012218
:100F00001B2F07DC2021C91B1A008B40FA40591EF9
:100F10008B411A430500B31A43E7002D23D1FF226A
:100F2000002B9BD0511E012AD6D0FF2A1BD01B2993
:100F30002CDD0200731C3AE7FF2A88D09B195B085E
:100F4000590700D033E7DB086EE7002B10D1002EE5
:100F500043D0012433000C4006E70124F71A0C406B
:100F600084E7002B04D13300FEE601259B1B18E724
:100F7000002E00D1F8E68022D203974204D3944594
:100F800002D2012433000C40DB08F1E61A002025D0
:100F9000CA40691A8B40591E8B41134305009B19A7
:100FA00050E7002E94D0012433000C403AE70C00A7
:100FB0000125F31AF5E6330034E79B1900225901A5
:100FC000C1D5154A1340DB0801222DE7002A00D1C4
:100FD0007EE713000022DB0826E780230024FF20A1
:100FE000DB03F1E6002A00D156E7471B3A00002D4B
:100FF00000D130E78022D2040C0013437FE7002A9F
:1010000000D101E7411B002D01D10A0088E78022B1
:10101000D20413438BE7C046FFFFFFFBFFFFFF7DBA
:1010200041024200C30F490A0020120E7E2A03DD4E
:101030009D2A02DD094A9818704780200004014368
:10104000952A07DC9620821AD1404842002BF3D122
:101050000800F1E7963A9140F7E7C046FFFFFF7FAF
:1010600070B5002813D0C317C5185D40C40F280001
:1010700001F0E8FF9E2301001B1A962B0FDC0828C5
:1010800034D008398D406D026D0AD8B202E00024D8
:1010900000200025C0052843E407204370BD992B9C
:1010A00016DC421F052800D095402A001148024056
:1010B0006E0709D00F263540042D05D004325501A6
:1010C00002D59F2302405B1A9201550AD8B2E1E78C
:1010D0000522121A2800D040020008001B3085406B
:1010E0002800451EA84102431500DEE76D02962048
:1010F0006D0ACFE7FFFFFFFB70B5041E0ED001F0B5
:10110000A1FF9E2301001B1A962B0CDC08282FD070
:1011100008398C406402640AD8B201E0002000243F
:10112000C005204370BD992B16DC421F052800D056
:101130009440220010480240650709D00F252C403A
:10114000042C05D00432540102D59F2302405B1ABF
:101150009201540AD8B2E3E7020020001B3290400B
:101160000200501E82410520401AC4401443E0E7AB
:1011700064029620640AD3E7FFFFFFFBF0B55746F1
:101180004E464546DE46E0B583B0009001910C0323
:101190004F00CE0F610A009C1D03640F0C430099A1
:1011A00000920193C80059004B0D9946009A019B8B
:1011B0006D0AD90F530F2B439A46009B7F0DDA001F
:1011C00094464A46B046BA1A8E4200D1B0E0002A90
:1011D00000DC78E04946002900D1E9E0C9498F42A6
:1011E00000D195E10125382A16DC802153460904F7
:1011F0000B439A461F2A00DDE7E1202155468B1A52
:1012000061469D40D1400D43614699404B1E994136
:101210005346D3400D43E41A451BA8428041404247
:10122000241A230200D40FE16402640A002C00D1C6
:1012300039E1200001F006FF0300083B20212800CF
:10124000CA1AD0409C4002009D4022439F4200DDCC
:1012500073E1D81B0130091A2C008D40C4406B1E6D
:101260009D411300C2408B402543002714001D43BD
:101270006B0709D00F232B40042B05D02B1DAB424D
:10128000AD416D4264191D00230200D42DE19D4A39
:101290000137974200D1D3E046469B49ED082140F3
:1012A0004A072A437C054D022D0B640D24052C436F
:1012B000F60734431000210003B0F0BCBB46B24631
:1012C000A946A046F0BD002A00D184E04A46D21BC0
:1012D000002F00D06DE12500054300D127E1561E07
:1012E000012A00D13BE2874DAA4200D16AE20125E2
:1012F000382E12DC32001F2A00DDF8E120262500FE
:10130000B61A07005346B040D440B540D740461EF9
:10131000B0411B1B9A463D4305436246551BAC45F5
:101320009241534652420E004F4688469C1A78E737
:10133000002A00DC8EE04946002975D161465346FB
:10134000194300D1F6E0511E012A00D191E16D4D03
:10135000AA4200D1DCE00125382914DC0A001F2A4A
:1013600000DDA2E120215346891A8B401D0063460F
:10137000D3401D4363468B4019004B1E9941534691
:10138000D3400D43E4182D18854280414042241873
:10139000230259D55B4B01379F4251D001215A4B53
:1013A0006A081C4029400A43E507154364085FE7C3
:1013B00061465346194300D1BCE0511E012A00D1B9
:1013C00064E1504DAA4200D16AE10125382900DDCF
:1013D00022E70A000EE74D4A7D1C154200D0D0E0FE
:1013E00025006246534605431A43002F00D037E1DB
:1013F000002D00D1A8E1002A00D16AE16346C51A98
:101400005346E21AA8429B415B42D31A1A0200D407
:1014100003E263461D1AAC459241534652421C1BDF
:101420000E008846A41A23E736498F4270D0012562
:10143000382AA8DC8021534609040B439A468EE7DC
:101440003C000025002231E707232B40002B00D071
:1014500010E793E0002A74D04A46D21B002F00D137
:10146000C7E02849894500D185E10125382A12DCE9
:10147000802109040C431F2A00DDABE12021250057
:10148000891A070088408D40D740411E8841D440CA
:101490003D430543A244654465459241524252444E
:1014A00014004F4674E7280001F0CCFD0300183308
:1014B0001F2B00DCC2E62A00083882409F4200DD74
:1014C000A9E0DB1B581C1F2800DCACE115001F3B0A
:1014D000DD40202805D040231B1A9A40531E9A4114
:1014E0001543072300272B40B0E7ED08054B6207A3
:1014F0002A43E4089F420FD02403250B7C05640D8A
:10150000D4E6C046FF070000FFFF7FFFFE07000094
:10151000C00862070243E4081300234300D186E1B8
:1015200080252D0325432D03C34C2D0BBEE66046BD
:1015300054460E001700C508D8E7C04CFF1A1440E7
:1015400096E6BF4A791C11426BD122000243002F5C
:1015500000D0DBE0002A00D12DE1624653461A4359
:1015600000D1B6E06346C5188542804154444042EC
:101570002418230202D50F00B04B1C403A0028006B
:10158000D8E76246851AA842924153465242914694
:10159000E31A1A004B46D21A130091461A0254D489
:1015A0004A464C462A4300D040E600260024002547
:1015B0007CE6A14DA94500D190E00125382A00DD47
:1015C000ABE680252D042C4395E6110055462039C5
:1015D000CD40A946202A06D0402153468A1A93407E
:1015E00062461A43944665466B1E9D414B461D4319
:1015F00012E62100014300D1C4E0511E012A00D1AE
:10160000FBE08D4DAA4200D1B5E00125382900DD6F
:1016100041E70A002FE7894CFF1A14406207E408EB
:101620006AE7854A914200D1E3E06346C2188242EC
:1016300080412300404253441B18DD075C08072308
:10164000520815430F002B4000E763461D1AAC45B6
:101650009241534652421C1B0E008846A41AE5E5EF
:10166000002D00D091E0002A38D1802400262403E8
:1016700056E76346C51885428041544440422418C9
:101680000127230200D4DFE6022787E66346C51A56
:10169000A842804153464042E41A0127241AC0E57B
:1016A0006207C0080243E40836E7110053462039B8
:1016B000CB409946202A06D0402153468A1A9340AF
:1016C00062461A43944665466B1E9D414B461D4338
:1016D00059E66207C0080243E4080DE753465A077B
:1016E0006346D80853460E000243DC0814E7150091
:1016F0002600203DEE40202A03D04025AA1A94401F
:101700002043421E90410500354306E6002A7CD066
:1017100062465346C0081A4300D1FAE662071043F6
:101720008022E4081203144208D0D908114205D1DE
:101730006346D80853460C005B071843420FC000AD
:10174000C00852070243E7E6002A00D12DE76346AE
:10175000D80853465A070E000243DC08CCE663461D
:101760001D1AAC459241534652421C1B0E0088463E
:10177000A41A013755E56346D90853465A070A4368
:10178000DC08C9E660465446D4E6C008002A00D109
:10179000BFE6620710438022E40812031442CDD052
:1017A000DD081542CAD16346D80853465B070E00D0
:1017B0002C001843C2E76346D90853465A070A4328
:1017C000DC0899E66346D80853465A070E000243E0
:1017D000DC08A1E6110027002039CF40202A03D0E1
:1017E00040218A1A94402043421E904105003D4307
:1017F00051E60C000025002258E560446045924106
:10180000544452420500A4183AE753465A07634627
:10181000D90853460A43DC087EE61A001C002A4316
:1018200000D0ABE6C1E620210025091A19E5002207
:101830000025014C3AE5C046FF070000FFFF7FFF8F
:10184000FE070000F0B5DE46454657464E46E0B579
:1018500087B0009201930B031B0B9B46CA0F4B00F2
:10186000040080465B0D029200D16AE1D44A9342A3
:1018700000D18CE15946420FC9000A438021090476
:101880001143C2009046CF4A894692469A440023AB
:1018900000240393009E019F3B031B0B9B467B0090
:1018A00030005B0DFD0F002B00D128E1C44A9342AC
:1018B00000D177E15946720FC9000A43802109041B
:1018C00011438B46BF49F2008C4651466344CB1A04
:1018D0009A460023029E6E400F2C27D8BA49A400D6
:1018E00009598F46CB464246029E039B022B16D0D7
:1018F000032B00D1A6E2012B00D0DFE00022002361
:10190000002490461B052343F60733434046190045
:1019100007B0F0BCBB46B246A946A046F0BD0022C7
:1019200000249046A64BEDE72E00DFE7CB4500D222
:10193000D4E100D1CFE101235B429C4644464846B6
:101940000027E2445B46150E1B021D43190C2B04B5
:10195000120200951D0C914602910395FEF75AFC68
:1019600002006A430B04210C804619438A4209D9BC
:10197000009D0123AC465B4261449C46E0448D429D
:1019800000D8FBE1881A0299FEF744FC039A24046C
:1019900042430904240C03000C43A24206D90099D7
:1019A000013B8C466444A14200D8E1E1A01A4246C2
:1019B00012041A4393464B4659461B0C1D000493D0
:1019C0000B0449460904090C0C001B0C5C43120C67
:1019D0006B43884651436A43250CAC465B1863440D
:1019E000994203D9802149028C466244190C24048F
:1019F0001B04240C8A181C19904202D316D1A7424A
:101A000014D25B46009D013B4F4405934F459B41DB
:101A1000AC465B426344C018854200D3A1E18242D8
:101A200000D9F6E100D1F1E1059B9B463C1BA742A2
:101A3000BF41009D801A7F42C01B854200D1D0E18A
:101A40000299FEF7E7FB039A0B044243210C0700BF
:101A500019438A4200D978E1881A0299FEF7DAFB25
:101A6000039A240442430904240C03000C43A242B9
:101A700000D95DE14146A41A3A041A43049D1304B7
:101A80001B0C594347466B439C46100C47430B0CB9
:101A9000BC44634468439F4203D980256D02AC4631
:101AA00060441F0C09041B04090C3F185B18BC425E
:101AB00000D202E100D1FDE001231A43434B53441D
:101AC000002B00DCAEE0510700D098E15946C90177
:101AD00006D559463E4B194080238B46DB005344C4
:101AE0003C498B4200DD1AE75946D20849071143A9
:101AF0005A465B0554028846240B5B0D02E75A46A2
:101B0000009B1A4300D17EE05B46002B00D100E130
:101B1000584601F097FA020003000B3A1D27009E79
:101B2000BA1A19005846D640083988403200024394
:101B30009346009A8A40284953448A469A4400238F
:101B4000C8E65B460343994656D05B46002B00D15E
:101B5000CDE0584601F076FA0B235B429C4602002A
:101B6000844466461D239B1B260011005846DE4018
:101B70000839884033000343994623008B40984638
:101B8000164B00249B1A9A460023039382E65A467A
:101B9000024391462AD100229A4602239046082405
:101BA000039377E65A46009B1A430D4B9C46E2444A
:101BB000002A17D102231C4300239B46023389E6E7
:101BC000FF07000001FCFFFFA85C0008FF03000006
:101BD000FFFFFFFEFE070000F30300000DFCFFFF08
:101BE00001F8FFFF032332001C4373E69A460323E8
:101BF000D9460C2403934DE6002398469A460133B8
:101C00000424039346E601231C4300239B4601332F
:101C100060E60023802498460026924B240371E658
:101C2000012252420121C91A382900DD66E61F2926
:101C300000DCABE01F204042C31A5846D8400300E6
:101C4000202904D058468849514488400243511EF7
:101C50008A411A43072319000024114013420CD073
:101C60000F231340042B00D1F9E0111D91429B4139
:101C70000A005B4259075B021C0BD2080A439046DC
:101C800000233FE680244B462403234209D05B46D1
:101C9000234206D11C4324032E009046714B240B93
:101CA00030E680244B4624031C432403029E6D4BE4
:101CB000240B27E6002B00D100E70098511E844634
:101CC0006444844200D284E0BC4200D2AEE000D141
:101CD000C1E00A00F0E6424500D92CE64B46DC079D
:101CE000580843465B081C434346DF072AE601F0D9
:101CF000A9F915239C4684440200634620321C2B1C
:101D000000DC2EE7230008388340994600239846DC
:101D100036E701F097F902000300153220331C2A40
:101D200000DCFBE600990838814000228B4602E780
:101D30000099013B8C466444A14200D99AE6A24234
:101D400000D897E6831E644494E6AC466144013FA4
:101D50008D4200D980E68A4200D87DE6871E614424
:101D60007AE6854200D05FE6B94500D95CE656E6E2
:101D7000A24200D81AE6831E644417E68A4200D8BD
:101D800000E6AC46831E98466144FBE537481400E4
:101D9000504482405B4617008340CC407A1E9741F6
:101DA00023433B431A005B46CB40510709D00F2128
:101DB0001140042905D0111D9142924152429B18B5
:101DC0000A00190200D455E700220123002490469E
:101DD00098E50A00BC4200D06EE64B4500D06BE6A9
:101DE0006CE6234B234A5344924500DA18E701215D
:101DF00049420A1D8A42894149428B4466E60F21C5
:101E00001140042900D161E61100F2E7BC4200D87C
:101E10000AE602235B429C4600994F444F459B4192
:101E2000E3448C465B426344C018FFE54946009D8D
:101E3000480048458941AC46494261448146023ADE
:101E40006418C7E780245B4624031C4324039046A0
:101E5000044B240B56E59945E8D30A00BDE700235F
:101E600008E7C046FF0700003E0400001E04000013
:101E7000FF03000002FCFFFFF0B55746DE464E466A
:101E80004546E0B50D000400E80F83460903D80F6E
:101E9000090B824619488C461F0369005E00490DF4
:101EA0003F0B760D814218D086420FD00120B142FF
:101EB0000DD1BC450BD1944209D1D3451CD000298A
:101EC00005D160462043431E984100E00120F0BC4C
:101ED000BB46B246A946A046F0BD01208E42F6D1CF
:101EE000614639430F0017432743F0D15B46524602
:101EF000981A431E9841EAE70020E8E7FF07000030
:101F0000F0B557464E464546DE46E0B50D000F0398
:101F1000390B83B00400804601915800E90F314F1E
:101F2000400D8C466E00190382469146760D090BD2
:101F3000D80FBE421FD0BA450FD0002E2FD1554624
:101F4000019E3443002D27D10A433AD0002C45D1BD
:101F500000281AD10120404217E011433BD1002E46
:101F600002D1019F2743F3D0844509D16346002B5A
:101F7000F0D0604609E0019F27432CD1B24524D020
:101F800063460220013B1840013803B0F0BCBB4659
:101F9000B246A946A046F0BD002CD9D0E4E754468D
:101FA000002CEDD08445EBD15645E9DCDEDB019B0E
:101FB0008B42E5D8DAD1C845E2D80020C845E4D242
:101FC000D4E70020002CE0D0DAE7114303D18445A8
:101FD000D6D10020D9E702204042D6E78445E6D09A
:101FE000CEE7C046FF070000F0B557464E464546CF
:101FF000DE46E0B50D000F0304008046E80F390B04
:10200000844683B05800304F400D01911E03690093
:1020100082469146490D360BD80FB94220D0BA45B9
:102020000FD000292BD101990C435146002937D1FB
:10203000324338D0002C44D1002819D1012040422D
:1020400016E0164313D1002902D1019F2743F3D094
:10205000844520D063460220013B1840013807E048
:10206000019F274303D18A45F4D116431FD0022094
:1020700003B0F0BCBB46B246A946A046F0BD5446EC
:10208000002CE7D08445E5D15145E3DC03DB019B1F
:10209000B342DFD80FD06346002BCFD06046E7E7CE
:1020A000002CC9D0D4E70020002CE1D0D2E7844531
:1020B000D0D10020DCE7C845CCD80020C845D7D215
:1020C000E9E78445E3D0C5E7FF070000F0B55746D0
:1020D000DE464E464546E0B51F000B031B0B1600BF
:1020E0009A46CA0F4B000400934687B05B0D00D19F
:1020F000D5E0BB4A934200D1F8E05146420FC900F7
:102100000A43802109041143C2009146B54A8A4618
:102110009D180023984602933C037B00FA0F300081
:10212000240B5B0D009200D196E0AD4A934231D072
:10213000720FE4002243802424041443A94AF000CF
:10214000944663445B195A1C0192424600260A2AAF
:1021500042DC5A4600994A4093464246022A32DC03
:10216000013A012A00D949E1022E00D1CAE0012E2C
:102170003DD100230024002210005A461B052343B2
:10218000D2071343190007B0F0BCBB46B246A946BC
:10219000A046F0BD924B2643EB18002E00D1BBE0C9
:1021A0000322414611435A46884600994A408021FD
:1021B00009018C4629006144019141460A2900DD4C
:1021C00033E293460326424601279740A6213A0070
:1021D000C9000A400F4231D0029E022E00D135E2E2
:1021E000032E00D1D2E154464846012EC1D0019AB7
:1021F0007D4B94466344002B00DCC0E0420709D0CD
:102200000F220240042A05D0021D82428041404232
:1022100024181000E20106D5744B019A1C4080235B
:102220009446DB006344724A93426BDC6207C00849
:1022300064025B050243240B5B0D9DE7902189003E
:102240000F4263D188223A4200D1D7E0009BA246D8
:102250009B4681460296BFE72300334300D17FE0CF
:10226000002C00D1ADE1200000F0ECFE02000300E4
:102270000B3A1D201900821A30000839D0408C40DA
:102280000443300088405B4AEB1A944663445A1C6E
:102290000192424600260A2A00DC5AE79CE7534690
:1022A0000343994654D05346002B00D177E1504662
:1022B00000F0C8FE0B235B429C46020084441100E0
:1022C0005046083988401D23804660461B1A20006E
:1022D000D8400300404603439A4623008B4099466A
:1022E0000023444D9846AD1A029315E75246024327
:1022F000914626D100221D000223924608329046C4
:10230000029309E700240022354B35E7002380249F
:102310009B462403324B2FE7022241461143802281
:10232000120194462A006244884601920A2900DD7F
:1023300052E75A460020009904004A40934602267C
:102340000BE70C221D000323814690460293E3E62F
:1023500000239A4604339846033B00250293DBE6AC
:10236000424601331A432B0090465A1C01924246C2
:102370000024002001260A2A00DCEAE62CE70122DC
:10238000D21A382A00DDF4E61F2A00DC2AE11F21D8
:102390004942CB1A2100D9400B00202A05D0164A09
:1023A000019D94466544AC402043421E9041184331
:1023B000072319000024014003420CD00F230340DF
:1023C000042B00D140E1031D8342A4411800644264
:1023D00061076402240BC20800230A43CCE6C0460E
:1023E000FF07000001FCFFFFFF030000FFFFFFFEEF
:1023F000FE0700000DFCFFFF3E04000049464A4670
:102400000904090C0D00160C020C0004000C4543D5
:10241000AC4605007543A84615000F0075430092B1
:1024200002952A00009D6F4365462D0CA94647443E
:102430004F44B84505D915008022520290464544C4
:1024400002953D0C039565462D043F042D0CAC46CA
:102450003D0065440495250C2404240CAC4625005D
:102460007543A84665460F00694341448946674362
:10247000390C49446E43884503D980225202904664
:1024800046440D0CA846350045440595039D3F0480
:10249000A8463F0C0904C91988444546039555468A
:1024A0002E04360C2F0C3500454378438146380006
:1024B000A8462D0CAA46009A504372434A445244FF
:1024C000914503D980256D02A9464844150CA946BB
:1024D00045462D042D0CA84665467D43120448440C
:1024E0009044A9463200654662436E437C43170C14
:1024F0003619BF19BC4203D980246402A446E144C2
:10250000029C039EA446059D66448E428941AC46CA
:1025100012043C04120CA218624449425418464466
:10252000A4464645A44182466442A046AA4292413E
:102530008C458941E244D044494252420A43A04575
:10254000A44182458941644249420C4341463F0CC3
:10255000D2191219CC0D049970020843411E88410A
:1025600041464A44F60D520230434902144308439F
:10257000D20135D50122430802401343E007184336
:10258000640834E6009BA2469B468146802453465D
:1025900024031C4324034A462E4B240BECE500F095
:1025A00051FD15239C4684440200634620321C2BB7
:1025B00000DC84E6002399462300083883409A46CD
:1025C0008EE600F03FFD02000300153220331C2A86
:1025D00000DC4EE602003400083A0020944052E647
:1025E000019304E61C4B21009C460300019DD3404F
:1025F0006544A94019430300AB40581E8341194369
:102600000800D4404B0709D00F230B40042B05D002
:102610000B1D8B428041404224181800230200D435
:10262000D6E6012300240022A6E50F29AAD18023A3
:1026300052461B031A42A9D01C42A7D11C43009B3F
:1026400002009B46034B97E50024C1E60024014BA2
:10265000220091E5FF0700001E040000F0B54E4681
:102660004546DE465746E0B585B0009001910C0323
:102670004F00CE0F610A009CB046640F0C430099D6
:102680007F0DC80011001A001B039C4600910192A7
:1026900051004B0D9946019B009DD90F63466A0F6F
:1026A0005B0A1343EA0094469346C14A039002939F
:1026B000914500D1CDE0012569404D467D1BAA46DC
:1026C0008E4200D180E0002D00DC35E34946002930
:1026D00000D1DFE0974200D194E152460125382A2B
:1026E00019DC8022029B12041343029352461F2AD4
:1026F00000DDE3E1534620226146029DD21A954057
:10270000D9400D43614691400A00511E8A4115434C
:10271000029ADA40A41A451BA84280414042241A7A
:10272000230200D43DE16402640A002C00D147E199
:10273000200000F087FC0300083B20212800CA1A73
:10274000D0409C4002009D4022439F4200DD77E143
:10275000D81B0130091A2C008D40C4406B1E9D41CE
:102760001300C2408B402543002714001D436B0714
:1027700009D00F232B40042B05D02B1DAB42AD41BC
:102780006D4264191D00230200D440E1884A0137DC
:10279000974200D101E1012643468649ED082140D8
:1027A0004A072A437C054D022D0B640D1E4024056B
:1027B0002C43F60734431000210005B0F0BCBB46A3
:1027C000B246A946A046F0BD002D00DCD0E2494645
:1027D000002900D0D4E06146029B194300D12BE1CF
:1027E000691E012D00D1D9E1954200D10AE10125F0
:1027F000382917DC8A4653461F2B00DDE7E12022EB
:10280000D21A029B614693401D005346D94063464D
:1028100093401A000D43511E8A4153461543029AB4
:10282000DA40A4182D188542804140422418230222
:1028300000D4B6E05E4B01379F4200D1ADE00121EC
:102840005C4B6A081C4029400A43E50715436408AD
:102850008DE7594A029B92466246BA441A432CD0ED
:102860008E422ED05246002A60D0002F00D1DBE0ED
:1028700063460E00029CD80862070243E408130076
:10288000234300D154E280252D0325432D03484CDA
:102890002D0B8CE76146029B194300D1CCE0290047
:1028A0000139012D00D188E1954200D1AAE001252E
:1028B000382900DD2FE78A4618E7012251408E4271
:1028C000D0D15346002B00D1BEE0002F00D038E11C
:1028D000CA462200024300D1E2E15346591E012BB1
:1028E00000D10DE2324A924500D1D2E101273829C8
:1028F00013DC1F2900DDEEE12022029B521A250085
:1029000007009A46CC4090409540CF40A244421EDA
:10291000904153462F43074302933D00654465456C
:102920009241029B52424F46D41880E7234A7D1CB5
:10293000154200D0AAE062462500029B05431A43D7
:10294000002F00D0F5E0002D00D16BE1002A00D16E
:1029500052E16346C51A029BE21AA8429B415B42C0
:10296000D31A1A0200D4D5E163461D1AAC45924130
:102970000126029B52421C1B8846A41A0E40F6E612
:1029800097423FD052460125382A00DD4AE780228F
:10299000029B1204134302932DE73C000025002202
:1029A00005E707232B40002B00D0E2E66BE0C04692
:1029B000FF070000FFFF7FFF01F8FFFFFE07000099
:1029C000280000F03FFB030018331F2B00DCB4E6A7
:1029D0002A00083882409F4200DDB9E0DB1B581C0A
:1029E0001F2800DCA0E115001F3BDD40202805D09A
:1029F00040231B1A9A40531E9A4115430723002770
:102A00002B40D0E7C00862070243E40837E7EA0832
:102A100063071A43D34BE4089F4200D12FE72403F6
:102A2000250B7C05640DC2E6CA462200024358D13C
:102A300063460E00029C0393039B5746DA08E7E7C0
:102A4000C94CFF1A144092E6C84D7A1C2A4200D0A5
:102A500084E022000243002F00D0EFE0002A00D1E2
:102A6000E5E0624602990A4300D1C5E06346C51815
:102A70008C4685428041644440422418230202D59A
:102A8000B94B01371C40BA460395D5E76246851A13
:102A9000A842924152429146029BE31A1A004B46C9
:102AA000D21A130091461A026CD44A464C462A4365
:102AB00000D03AE600260024002578E60299534625
:102AC0000D00203AD540202B06D04022D21A0B0010
:102AD000934062461A4393465B465A1E93411D43F8
:102AE00019E653465A1E012B00D1C6E09D4EB24551
:102AF00000D1BDE688460E000125382A10DC1F2AC9
:102B00007FDC20212500891A070088408D40D740AE
:102B1000D440411E8841029B3D431B1B0543029349
:102B20006246551BAC459241029B52424F469C1A4D
:102B3000F6E5002D00D0B7E0002A00D1F0E0012634
:102B40000E4063460298D90842070A43C40896E635
:102B5000854CFF1A14406207E40860E781498A4205
:102B600000D1C9E06346C11881428041029B4042C6
:102B7000E3181B18DD075C08072349080D431700FD
:102B80002B4010E763461D1AAC4592410126029B7B
:102B900052421C1B8846A41A0E40C6E56346C5185F
:102BA000029B854280419C46404264442418012790
:102BB000230200D4F5E6022741E66346C51AA8427F
:102BC0008041029B4042E41A0127241AA8E5029D95
:102BD00052462B00203AD34019005346202B06D0F2
:102BE0004022D21A2B00934062461A4393465D4618
:102BF0006B1E9D410D4315E66207C0080243E408C1
:102C00000DE7110027002039CF40202A05D04021B0
:102C10008A1A9440250005430395039D6A1E954139
:102C20003D437DE7002A00D144E701260E4063467C
:102C3000D908029B5A070A43DC08F0E6002A28D08C
:102C40006246029FC0083A4300D1DCE662071043A7
:102C50008022E4081203144209D0FD08154206D16F
:102C6000634601262C00D8087B0718430E40420F0C
:102C7000C000C0085207024301E663461D1AAC4576
:102C80009241029B52421C1B0E0088460127A41A47
:102C900046E56346D908029B5A070A43DC08EEE57D
:102CA0006346029C0393C7E6C008002A00D1AAE647
:102CB000620710438022E40812031442D7D0029F17
:102CC000FD081542D3D163460126D8087B072C00A6
:102CD00018430E40CBE70A002700203AD7402029AE
:102CE00005D04022521A9440250005430395039DC8
:102CF0006A1E95412F4310E614000025002256E578
:102D0000029B60449946604592414C445242050002
:102D1000A4184CE71A001C002A4300D0B3E6C9E609
:102D2000802400262403AEE520210025091A17E59A
:102D3000002200250B4C3AE5002D00D1F6E54B466C
:102D4000DA1B9246002F00D16FE6382A05DC802678
:102D50003604344388460E00D1E688460E0001252D
:102D6000DEE6C046FF070000FFFF7FFFFE07000012
:102D7000002D00D168E64B46D91B002F01D18A46B1
:102D8000A7E50127382900DDC7E580221204144396
:102D9000AFE5C046F0B5C6461E03360BB0460D4E35
:102DA0000C034D005F0000B5240B6D0D7F0DB54287
:102DB0000BD0084900208F4204D14646164330000C
:102DC000431E984180BCB846F0BD04430120002C4E
:102DD000F8D1EEE7FF0700000B00020070B5164DBA
:102DE0000C0382B04900002000920193240B490D8E
:102DF000DE0FA94204DD1148814203DD104BF018BB
:102E000002B070BD8020400320430E4C641A1F2C7A
:102E100008DD0D4B5B1AD84003005842002EEFD15D
:102E20001800EDE7094B009A9C46030061448B4073
:102E3000E2401343F1E7C046FE0300001D0400001A
:102E4000FFFFFF7F3304000013040000EDFBFFFFD2
:102E500070B5002816D0C317C5185D40C40F2800F0
:102E600000F0F0F8104B1B1A5B055B0D0A2814DC10
:102E700002002E00153296400B22121AD5402D0367
:102E80002D0B03E000240023002500261B052B4307
:102E9000E40723433000190070BD0B3885402D0333
:102EA00000262D0BF2E7C0461E04000070B542025A
:102EB0004300C40FFE201B0E591C550A08420CD0BB
:102EC000E02189008C466D07120B63441B051343F8
:102ED000E40723432800190070BD002B14D1002DF6
:102EE0001BD0280000F0AEF80A281CDC0B232A00B7
:102EF0001B1ADA40030015339D400E4B12031B1AB8
:102F00005B05120B5B0DE1E7002D09D0130B80224E
:102F100012031A436D07084BD8E700230022D5E7B8
:102F20000022054BD2E703002A000B3B9A40002504
:102F3000E3E7C04689030000FF070000F0B54B003F
:102F40000F035B0D3B4C450F83B07F0A5E1C2F4384
:102F500000900191CA0FC50026420BD036495C187B
:102F6000FE2C13DDFF200023C0051843D2071043B9
:102F700003B0F0BD002B02D100200023F4E73D4355
:102F8000F0D08023DB03FF203B43EDE7002C14DD72
:102F9000009BFF009B01581E8341690F3B430B437D
:102FA000590741D00F211940042928D00433590171
:102FB00025D501340023E0B2D6E721001731DBDB51
:102FC00080211E2009043943001B1F281BDD022617
:102FD0007642341B0E00E6403400202804D0174807
:102FE0008446634499400D432B00591E8B41234373
:102FF000590715D00F2100241940042917D19B012E
:103000005B0AE0B2B0E70E4C1C192B00A540C34090
:10301000A140681E854129430B4300245907C1D1B3
:103020009B0100205B0A9FE7DB08E0B29CE70433CA
:10303000E5E7C046FE07000080FCFFFFA2FCFFFFA3
:1030400082FCFFFF1C2101231B04984201D3000CCA
:1030500010391B0A984201D3000A08391B0998420B
:1030600001D30009043902A2105C40187047C04621
:103070000403020201010101000000000000000041
:10308000A020012210B5054B2021C0051A7001F0C7
:103090008DFB034801F0D2F810BDC0467C00002033
:1030A000C4010020384B026870B59A426BD1374B8F
:1030B0001888FEF721F8E6218905FDF7CFFC344B8F
:1030C000041C1860011CFE208005FDF705FE314937
:1030D000FDF7C4FC211CFDF7DBFA2F4B2D491860CE
:1030E000FDF7D6FAFFF7E2FE02F09EFB00222B4B23
:1030F000FEF7A8FBE0222A4B1206FEF73FF802007B
:103100000B0000202749FEF79DFBFFF717FF264B1A
:103110001860FFF7CBFE254B254AFFF79FFAFFF714
:103120000DFF244B24491860041CFDF7DDF800282E
:1031300024D02249201CFDF7C3F800281ED0204BC4
:10314000204E1A88204D012A03D12A88328000227D
:103150001A801E49201CFDF781FC1D49FDF70EF960
:103160001C4B041C18603088FDF77AFF211CFDF70A
:1031700075FC194B1860FDF7CBF82880A0201021B2
:10318000C00501F013FB70BD00200040AE0200201E
:103190003C02002000401C46400200200080B1405C
:1031A000E1796B3F0000F03F380200206612714069
:1031B00066666666440200200000A0420000C84225
:1031C00000000020A0020020A20200208716D9BC27
:1031D0009A9929402C0200203402002000B58DB0BD
:1031E0001822002106A802F0E2FA00211422684603
:1031F00002F0DDFA02230593FE33089305A8C03BD5
:103200000A9301F0DBFA011E01D072B6FEE7072334
:1032100000939023019002901B0104906846039351
:1032200001F028FC002801D072B6FEE70DB000BD09
:10323000F0B50024BB4BA5B01C80BB4B01261C8005
:10324000BA4B10221C80BA4BBA491C80BA4B08A852
:103250001C80BA4BBA4D1C80BA4B08271C80BA4B55
:103260001C80BA4B1C7002F0D5FAB94B1C8000F0E0
:1032700035FCFFF7B3FF1422210017A802F097FADC
:10328000A0206B6B220033436B636B6B30213340A8
:103290000493C005049B01F083FA0E23A02017932A
:1032A00017A90C3BC0051993189401F0BFF9A02091
:1032B000302317A9C0051793189619941A9401F092
:1032C000B5F9AB6B22003343AB63AB6B21003340EA
:1032D00009200393039B00F0EFFF092001F016F88B
:1032E0000C22210017A802F062FA9A4D9A4B28008E
:1032F0002B608023DB056B6080239B032B61032302
:10330000EB61AB19DC779823DB006B62C03BAB62EF
:103310002B002C331E7006236B632B0003363C33CB
:10332000AC60EC606F612C83AC762C63AE631C7078
:10333000EC6400F0F5FBA04201D072B6FEE7874BCB
:103340001890199017A92800179300F04FFD002836
:1033500001D072B6FEE7824B280017A91793189682
:1033600000F044FD002801D072B6FEE77D4B280036
:1033700017A91793189700F039FD051E01D072B6F2
:10338000FEE78026010010220CA802F010FA0C22A1
:10339000290005A802F00BFA1C22290010A802F04F
:1033A00006FA3422290017A802F001FA6E4C6F4B7E
:1033B000B601200023606560A560E6602561656157
:1033C000A56101F0C5FE002801D072B6FEE780239A
:1033D00020005B010CA90C9302F038F8002801D002
:1033E00072B6FEE7200001F007FF002801D072B698
:1033F000FEE705900690079005A9200002F046F927
:10340000021E01D072B6FEE7602311901093139054
:103410005E3B14901590169010A92000129301F0B5
:1034200083FF002801D072B6FEE780231790189022
:1034300019901A901B901D901E901F909B04219034
:103440002290239017A920001C96209302F04EF999
:10345000002801D072B6FEE7434B454F1800019398
:1034600000F082FA1022002110A802F0A0F90C222C
:1034700000210CA802F09BF91C22002117A802F0E1
:1034800096F93C4C3C4B20002360072363600023EB
:10349000E760A3602361A36101F05AFE002801D018
:1034A00072B6FEE7802320005B0110A9109301F0A3
:1034B000CDFF002801D072B6FEE7200001F072FEB9
:1034C000002801D072B6FEE7202320000C930CA93F
:1034D00060330E9302F0DAF8021E01D072B6FEE7F6
:1034E0003023179380231990DB001B9017A920002D
:1034F000189301F0E7FE061E01D072B6FEE7200029
:1035000000F032FA1D4D1E4B28002B601D4BAE60A3
:103510002E61AE616B60EF6001F01AFE061E33D0C3
:1035200072B6FEE7A60200209E020020A202002042
:103530009C0200201C5C00089A02002098020020D7
:103540000010024096020020940200202802002071
:10355000A4020020C401002000240140000100203A
:103560008000001C000200A41C010020002C01406F
:10357000E7030000D0000020000400408400002089
:1035800000200040B70B0000200001F0C5FC310016
:10359000200002F001F8280001F0BEFC31002800F4
:1035A00001F0FAFF3100019802F06CF803226C4937
:1035B0006C4800F0B3FD6A4C6B4923886B4D019356
:1035C000019A6B4B1A8063889C466246694B1A804D
:1035D000694B1A88920050590A68121A0A601A88B0
:1035E0006648920012581700654A1668F61B166066
:1035F0001E88019FB600775167461E88B600375077
:103600001E88B60076590D68AD190D601D886E1CB8
:10361000B6B2AD001E802D58106840190725106005
:103620001888284018800B681168564AC90811800C
:10363000DB08554A9BB2554D1380554A2B80934267
:1036400001D800232B802888002810D0514BC018A7
:1036500080B2FFF7FDFB504B504AFEF737FDFCF7F9
:103660006FFE802380B25B01984268D228804C4A6A
:103670002B8815001380A2884A4B21001A803948F4
:10368000032200F04BFDA0200821C00501F082F8C4
:10369000454C04212080A020C00501F07BF8434E5A
:1036A00002213080A020C00501F074F80300404AD8
:1036B0009B0010803088228840008018C0183D4B45
:1036C00080B2188008AB4000C45A2B883A4D5C4346
:1036D0002E883A4BA4B21C80B4420FD3384B3949E0
:1036E0001868FCF7EDFD002808D0FE22364B920545
:1036F0001A600122354B01362E801A802E88B44282
:103700000FD22F4B2F491868FCF7DAFD002808D09C
:10371000FE222D4B92051A6001222C4B013E2E8079
:103720001A802B882A4A53632A4A1378002B09D01F
:10373000022B00D03FE70023274A13803BE7274BAB
:103740002B8094E7244B1B88082B03D82C80013353
:103750009BB2F1E7092BFAD102211170F7E7C046BD
:103760007E000020C40100205002002074020020CE
:10377000AC020020AA0200204802002054020020CF
:103780004C020020AE0200209A020020B00200206D
:10379000650300009AFCFFFFEB51F43F52B81E8511
:1037A000A80200209C02002098020020960200201F
:1037B00094020020A6020020A2020020A402002001
:1037C000440200200000A0422C0200200000002043
:1037D000002C01402802002030020020FF0F0000D2
:1037E00072B6FEE707B5012180200B4B40051A6C2D
:1037F0000A431A641A6C0A400092009ADA6B024378
:10380000DA63DB6B00220340022001934042019BFC
:1038100000F052FD07BDC0460010024070B5050023
:103820008EB01422002102A801F0C1FF1C22002149
:1038300007A801F0BCFF244B2A689A4242D180239A
:1038400007A8DB01079301F0C7F9002801D0FFF7B3
:10385000C7FF80211D4B49031A6CA0200A431A643C
:103860001A6C00260A4001210092009A5A6BC0058A
:103870000A435A635B6B04960B400193019BC02380
:103880005B0002937E3BFF3B02A9039300F0CEFE58
:103890000F4C104B20002360052363607B332361B2
:1038A000803363618023DB00A3612023A660E66090
:1038B000E361266200F08AFDB04201D0FFF790FF7D
:1038C0002C65A5620EB070BD0024014000100240BE
:1038D00068010020080002401FB503681E4A934299
:1038E00013D180211D4B09011A6C0E200A431A6462
:1038F00000221B6C0B4001931100019B00F0DCFCCB
:103900000E2000F003FD05B000BD154A93420FD113
:103910000221124B1020DA6B0A43DA630022DB6BC0
:103920000B4002931100029B00F0C6FC1020E8E758
:103930000C4A9342E7D18021084B09021A6C1320EC
:103940000A431A641B6C00220B4003930221039B61
:1039500000F0B2FC1320D4E7002C0140001002401C
:10396000000400400020004010B5040088B014227C
:10397000002103A801F01BFF2368144A934214D1CD
:103980000123134A516B19435163526B03931A403D
:103990000192DB18019A04930333A02003A9C00508
:1039A000079300F043FE08B010BD0A4A9342FAD1D3
:1039B0000123074A516B19435163526B1A4002921B
:1039C000029A402203923E3A0492E6E7002C01401C
:1039D0000010024000040040FEE7FEE77047704719
:1039E00010B500F087F810BD10B5024800F0CAFD10
:1039F00010BDC0466801002010B5024801F0BEFAB3
:103A000010BDC0461C01002010B5024801F0B6FAF6
:103A100010BDC046D000002010B5024801F0AEFA3B
:103A200010BDC046840000208022024B12059A601F
:103A30007047C04600ED00E00D488546FFF7F4FFF3
:103A4000002103E00B4B5B58435004310A480B4BF9
:103A500042189A42F6D30A4A02E000231360043265
:103A6000084B9A42F9D301F0B1FEFFF7E1FBFEE704
:103A700000180020345D00080000002060000020D5
:103A800060000020F0030020FEE7000070B5104B3E
:103A900005001978002901D1012070BDFA208000AD
:103AA000FCF732FB0B4C01002068FCF72DFB00F00B
:103AB00039FC041EF0D1032DEED8020001202900AC
:103AC000404200F0F9FB044B20001D60E5E7C046D2
:103AD00008000020040000200C00002010B5012088
:103AE000FFF7D4FF041E03D1FFF77CFE200010BDBA
:103AF0000124FBE7034A044B11681B785B18136031
:103B00007047C046B402002008000020014B18682E
:103B10007047C046B402002080684007C00F70475D
:103B20000023F0B585B004000393984200D1EFE084
:103B3000856D9D4205D1FFF771FE23005433E56585
:103B40001D70802325685B05AA681A4200D1A7E092
:103B50000022AB680192DB0008D410230126A26D7D
:103B600001961343A365E36D3343E3652800FFF734
:103B7000D3FF1022A36D1340034300D0CBE0A26D0E
:103B8000674B20691A400633FF331343A365AB68C4
:103B9000DB0761D4276BE1687B1E9F41A368A27E8F
:103BA0000B43217E3F0389030B43617EC9030B4313
:103BB00051030B439C46002800DB85E04100490887
:103BC000230066462C331B785B0033433B430B4397
:103BD000611CC97F012905D1002A00D077E080222D
:103BE00052021343626A002A05D0E02149000A40CC
:103BF000A16A0A431343EA684A490A401343EB6047
:103C0000230062683C33E16C1B78970FBF079C462A
:103C10003943012B08D1236C666C33430B43A16CF1
:103C20000B4361463B4319432B693F4F3B400B43DA
:103C300080212B6153005B08C9058B420CD0802387
:103C40001B069A4208D03949394F0B683B40F02790
:103C5000BF033A4013430B60072170276B69626B07
:103C60008B4313436B616969A36BB9431B010B431E
:103C70006B61002833D11023A96A5B420B43AB620E
:103C800007216B690B409A4238D10023E365A26D8E
:103C900003339A43023B1343A365019805B0F0BD7B
:103CA000AA6824490A401343AB60234B2349186890
:103CB000FCF72AFA40000390039B002B00D147E752
:103CC000039B013B0393F7E78021890378E72022D8
:103CD000A76D3A43A265E26D1143E16582E7802357
:103CE0009B039842CCD11C21AB6AE369013B9B004A
:103CF0000B402C3999400B00216EBFE71223A26DB7
:103D00009A43023B1343A3650123E26D1343E3652A
:103D100001230193C1E7A36D1A43A265F8E7C046EA
:103D2000FDFEFFFF0102DEFF02FCFF1F082701402E
:103D3000FFFFC3FFE8FFFF6F04000020400D0300FA
:103D4000704710B5806AFFF7FBFF10BD7047402336
:103D5000806A10B5826D134383650423C26D1343DB
:103D6000C365FFF7F3FF10BD502370B5846AA26DE1
:103D70001A422DD1A26DB133FF331343A365C02383
:103D800025681B01EA681A4215D1A37E002B12D1C7
:103D90002B681B070FD52800FFF7BEFE00280ED1A9
:103DA0000C226B6893436B60A26D0F4B1A40043377
:103DB000FF331343A3652000FFF762F970BD202392
:103DC000A26D1343A3650123E26D1343E365F2E79C
:103DD000A36DDB0603D52000FFF7B8FFEEE7236DE8
:103DE0005B6B9847EAE7C046FEFEFFFF0023F0B595
:103DF00085B003930300009154331A780400022025
:103E0000012A4DD0012227691A7025682800FFF782
:103E100083FE002800D0E8E0009B04225B6880213C
:103E20009C4697436246009B09061B68022A00D104
:103E3000B6E05A02520A8F4234D1A96A0A43AA62F2
:103E4000009A6869926819026B4E0A4032408843B2
:103E500002436A61002B1FDAC020684A684915686E
:103E6000000428408B4200D08AE0802109040D42E2
:103E700012D11368634D2B4003431943624B116009
:103E800018686249FCF740F90C234343013303935C
:103E9000039B002B00D070E00020002354342370DB
:103EA00005B0F0BD1F2167460F401039B940CE4321
:103EB0000196266E8E433100002A12D1980E1F32D1
:103EC0001040B840624608439208E169013220661A
:103ED0008A42B5D8A96A01989A00120FBA400140E7
:103EE000ACE701221342ECD1921801201342E8D131
:103EF000100002321342E4D101301A07E1D401303C
:103F0000DA06DED401309A06DBD401305A06D8D462
:103F100001301A06D5D40130DA05D2D401309A0521
:103F2000CFD401305A05CCD401301A05C9D40130A0
:103F3000DA04C6D401309A04C3D401305A04C0D480
:103F400001301A04BDD40130DA03BAD401309A0327
:103F5000B7D401305A03B4D401301A03B1D40130BC
:103F6000DA02AED401309A02ABD480221800D20318
:103F700010401342A5D01620A3E7039B013B86E720
:103F800023498B4200D087E78021C9030D4200D02E
:103F900082E713681B4D2B400343194311607BE7F5
:103FA0008F4204D1AA6A5902490A8A43AA62002BA5
:103FB00000DB71E7114912480A68834208D1802367
:103FC000DB03086813400F4A024013430B6063E7AA
:103FD0000F48834200D05FE7802000040B68024056
:103FE000084803401A430A6056E72023A26D0120C7
:103FF0001343A36551E7C04600FFFF7F0827014038
:10400000000200A4FFFF3FFF04000020400D03005A
:10401000000400A870B5056804002800FFF77CFDC7
:10402000002801D1002070BDAB689B0705D4AA68A9
:104030000D4B1A4010231343AB60FFF767FD0426B6
:10404000050023689B683342ECD0FFF75FFD401BFF
:104050000228F6D910230120A26D1343A365E36D56
:104060000343E365DFE7C046E8FFFF7F0023F7B5C2
:1040700002680193916801330400194201D00020C5
:10408000FEBD90682049084208D01022A16D0A4365
:10409000A265E26D13430120E365F1E791681B4FD0
:1040A00039400B4393601A4B1B681B021DD4637E7F
:1040B000012BE4D0FFF72AFD0125060022681368D2
:1040C0002B42DCD193682B4203D193683B402B43B6
:1040D0009360FFF71BFD801B0228EFD91023A26D10
:1040E0001343A365E26D0123D4E70A4B0A4918681C
:1040F000FCF70AF801300190019B002BD7D0019BFF
:10410000013B0193F8E7C04617000080E8FFFF7FFE
:104110000827014004000020400D0300F7B50568A2
:10412000040028000E000192FFF7F6FC022300288D
:104130003FD1270054373A78012A3AD0013B3B70EF
:10414000EA681A420CD1AA681A4205D0AA681A4B2A
:104150001A4002231343AB600123EA681343EB6068
:104160002000FFF783FF031E23D1A16D134A1140E6
:10417000802252000A43A265E065114A206D216841
:10418000C262104A0263104A42631C220A603B70FA
:104190004A68103313434B603200019B403100F0FA
:1041A0006FF903002068044A8168114004220A4321
:1041B00082601800FEBDC046E8FFFF7FFEF0FFFFF3
:1041C000693D0008433D00084F3D00080122036897
:1041D00070B5040098689968114201D1002070BD43
:1041E00002210842FAD105209D680540012D1AD10F
:1041F0009A68114802401143032299601A60FFF740
:1042000085FC060023689B682B42E7D0FFF77EFC05
:10421000801B0228F6D91023A26D1343A365E36D1A
:104220002B43E36506E01023A16D0B43A365E36D0B
:104230001A43E2650120D2E7E8FFFF7F70B5060070
:104240005436337804000225012B26D00123337025
:10425000FFF7E0FE051E1ED1206D831DDB7F022BC4
:1042600008D100F055F9002804D040230500A26DC4
:104270001343A36510212268200053688B435360C9
:10428000002D0CD1FFF7A2FF051E0BD001212268E3
:10429000D3688B43D36000233370280070BDFFF7D1
:1042A00095FFF3E7A26D034B1A400433FF3313432A
:1042B000A365EBE7FEFEFFFF10B5FF2403220B0012
:1042C00021000240D20091409B012340C94393400A
:1042D00000280ADBC0240B4A800880008018A40054
:1042E00002590A401343035110BD0F2210400838F1
:1042F000054A800880008018C26911401943C161D5
:10430000F2E7C04600E100E000ED00E0002805DB38
:104310001F2318401E3B8340014A13607047C0466C
:1043200000E100E08022431E5204012093420DD29E
:10433000C021074A07485360036A09061B021B0A8B
:104340000B43036200200723906013607047C04650
:1043500010E000E000ED00E0F0B5846CC56C656035
:10436000046D002C02D0446D856D65601C24056CC5
:10437000084E25401B3CAC4077683C4374600468A1
:1043800063608368102B02D1A260E160F0BDA16080
:10439000E260FBE70000024010B504000068142151
:1043A000C0B20838FBF7B0FE236C064A9B089B1886
:1043B0009B006364044BA3641C2318401B3B834095
:1043C000E36410BD0082001080080240F8B50400CC
:1043D0000120002C45D02568254B1421E818FBF757
:1043E00093FE02238000A61D2064F3772B68214AE8
:1043F000A76813402B60E36821693B430B43616965
:104400002A680B43A16920000B43E1690B43216A31
:104410000B4313432B60FFF7BFFF8023DB019F4259
:1044200001D1002363606268616CD3B20B60E06C01
:10443000A16C013A4860032A14D80F4A0F48991812
:104440000122013B9A40A2651300002289002165E8
:1044500060650A60436000200123E0630534F37760
:10446000E077F8BD002323656365A365F3E7C046E5
:10447000F8FFFDBF0F80FFFF3F82001040090240A0
:10448000F7B5461D0193F47F05000220012C36D0BC
:104490000138F077AC1DE07F022784466346C0B246
:1044A00000903800012B28D10020E7772C68E863C2
:1044B0002068009B98432060019B2800FFF74CFF79
:1044C0002B6B002B1CD00E232268134323606B6CD4
:1044D0001A68D20304D58022196852000A431A6070
:1044E0002B6D002B04D08022196852000A431A60F9
:1044F000012300202268134323600023F377FEBDCD
:10450000042223689343236022680A23DDE7000026
:10451000F0B5002808D0841DE37F411D022B05D093
:104520000423C3630023CB770120F0BD0E2502686E
:10453000466C1368AB4313603368104D2B403360F7
:10454000012316689E431660026C1B331A401B3B06
:1045500093400B4E77683B437360C26C836C5A6028
:10456000036D002B05D01A682A401A60436D826DD6
:104570005A6001230020E377C877D6E7FFFEFFFFEC
:1045800000000240F8B51C240427016C264A214093
:104590003C008C40166803681D6826420FD03D42DF
:1045A0000DD01968890602D41968B9431960536897
:1045B0001C43036B5460002B1BD0984719E0022763
:1045C0003C008C40264215D03D4213D01968890624
:1045D00006D40A251968A94319600121831DD977DA
:1045E00053681C4354600022431DDA77C36A934228
:1045F000E3D1F8BD082427008F403E42F9D0254280
:10460000F7D00E251C68AC431C6001231D008D40B3
:104610002900546821435160821DC363D37700226F
:10462000431DDA77436BE2E70000024000239C461B
:10463000F0B585B00B6864461A00E24001D105B0C0
:10464000F0BD6246012696401A0032400192334284
:1046500000D190E04F6810233D009D430395022D4B
:1046600014D16346DA0892008218136A07241D00E9
:1046700063461C400F23A400A3409D4302950F25D1
:104680000B692B40A340029C2343136263465A00EC
:10469000032393400468DD439C4303233B40934042
:1046A0000295039D2343013D0360012D0FD88468CB
:1046B000029B01251C40CB689340234383603B0948
:1046C0002B406546AB404468B44323434360032F0B
:1046D00051D0C468029B1C408B6893402343C36045
:1046E00080235B051F4246D063469A08234B920005
:1046F000D218032463461C400F23E400A340A026E5
:10470000156EF6059D430023B0420CD01C4E0133BC
:10471000B04208D01B4E0133B04204D01A4BC3182C
:104720005E1EB3410533A3402B431366174B019A1A
:10473000DD6F019CD2432C43FE0301D42C001440B6
:10474000DC67134C019DE36F1D43BE0301D413408E
:104750001D000A4BE5671D68019C2C43FE0201D435
:104760002C0014401C605C68019D2543BF0201D4ED
:10477000144025005D6001239C445BE70018024063
:10478000000400500008005000ECFFAF0418024085
:104790000818024000690840431E9841C0B27047A3
:1047A000002A01D0816170478162FCE742691300F1
:1047B0000B401B0491430B4383617047F8B5051E02
:1047C00001D10120F8BD0368DB070DD42B689B07DE
:1047D0004FD42B681B0700D5A4E004222B6813429A
:1047E00000D0CFE00020EDE73821854C4368A26877
:1047F0000A40082A02D1002BE8D1E2E780225202C7
:10480000934211D1226813432360FFF77FF9802779
:104810000600BF0223683B42D8D1FFF777F9801B1F
:104820006428F7D90320CDE7A021C9028B4208D123
:1048300080232168DB020B43236023681A43226034
:10484000E3E722686F490A40226022686E490A4005
:104850002260002BD9D1FFF759F980270600BF024B
:1048600023683B42B2D0FFF751F9801B6428F7D987
:10487000D8E73822624CEB68A16811421CD1002BAA
:104880009FD062686B6961491B020A4013436360F1
:1048900023685F4A5F4913402A69134323602368F2
:1048A0005D4A9B045B0FDA405C4B0A601868FFF7B7
:1048B000EDF800288DD084E7002B20D02368544ADF
:1048C000802713402A69FF00134323608023226856
:1048D0005B0013432360FFF719F9060023683B428E
:1048E00007D062686B6949491B020A401343636041
:1048F0006FE7FFF70BF9801B0228EFD992E72368D7
:10490000474A802713402360FFF700F90600FF00A5
:1049100023683B4200D15CE7FFF7F8F8801B0228D0
:10492000F6D97FE73821364CAA69A3680B40182BCB
:1049300003D1002A00D050E743E70123002A10D01A
:10494000226E022713432366FFF7E0F80600236E6A
:104950003B4200D041E7FFF7D9F8801B0228F6D987
:1049600060E7226E02279A432266FFF7CFF806001F
:10497000236E3B4200D130E7FFF7C8F8801B0228C6
:10498000F6D94FE738211E4CA868A3680B40202BAE
:1049900003D143425841C0B214E7E36D012810D15E
:1049A0000343E365FFF7B2F802260500E36D3342E7
:1049B00000D017E7FFF7AAF81A4B401B9842F5D929
:1049C00030E7052805D11343E3650123E26D134366
:1049D000E7E701218B43E365E36D9343E36500283B
:1049E000E0D1FFF793F802260500E36D334200D1D2
:1049F000F8E6FFF78BF80B4B401B9842F5D911E70F
:104A000000100240FFFFFEFFFFFFFBFFFF80FFFFE4
:104A1000FFC7FFFF04000020006CDC020C00002038
:104A2000FFFEFFFF8813000038220F4B99681142E8
:104A300005D11B680D489B045B0FD84070479968EF
:104A4000114008290BD099681140202909D09B6892
:104A500000201340182BF1D1FA20C001EEE70448E2
:104A6000ECE780200002E9E700100240006CDC0265
:104A700000127A00F7B504000D00002801D10120D2
:104A8000FEBD07274B4E33683B408B422AD322683A
:104A900093073BD4D2074AD4072733683B40AB4245
:104AA0000AD93368BB432B433360FFF72FF80190DB
:104AB00033683B40AB426DD123683F4D5B0771D4F7
:104AC000FFF7B2FFAB683D491B051B0F9B005B580E
:104AD0001F210B40D8403A4A3A4B10601868FEF745
:104AE000D5FFCDE73368BB430B433360FFF70EF8C8
:104AF000019033683B40AB42C9D0FFF707F8019BF8
:104B0000C01A314B9842F4D90320B9E72A49530718
:104B100006D588682D4B1840B0231B0103438B60DA
:104B20008B682B480340E06803438B60B2E71C228C
:104B3000214F3B689343A26813433B606268012A9C
:104B400019D13B689B039AD50721BB688B4313435C
:104B5000BB60FEF7DBFF01903823BA681A40636838
:104B6000DB009A4298D0FEF7D1FF019BC01A164B8A
:104B70009842F1D9C8E7002A03D13B685B05E3D42A
:104B80007DE70223032A03D1396E1942DCD176E78F
:104B9000F96DFAE7FEF7BAFF019BC01A0A4B98427B
:104BA00086D9B1E7AB680B4A134022691343AB6067
:104BB00086E7C0460020024000100240E85C000882
:104BC000040000200C00002088130000FF84FFFF79
:104BD000FFF0FFFFFF8FFFFF0368F7B50500002020
:104BE0009B0323D58022394C5205E36B0700134207
:104BF00007D1E36B01371343E363E36B1340019386
:104C0000019BE16DC02208009200AB691040114287
:104C10003BD10020E36D2E4A1340AA691343E3659C
:104C2000012F03D1E36B2B4A1340E3632A68D307B8
:104C300006D5032425494B6DA343AC6823434B653C
:104C4000530606D52149244C4B6D2340EC68234381
:104C50004B65530406D51D496C694B6D9B009B0841
:104C600023434B65130506D518491C4C4B6D234057
:104C70002C6923434B65002A06DAE021134A1368A6
:104C80008B4369680B431360FEBD98420CD0E36D03
:104C90000F4AE16D1340802252020A43E265E26D41
:104CA0000F490A40E265E365DB07B2D5FEF72EFF48
:104CB00006000222E36D1342ABD1FEF727FF094B3A
:104CC000801B9842F5D90320AAE7C0460010024095
:104CD000FFFCFFFFFFFFFFEFFFCFFFFFFF3FFFFFE7
:104CE000FFFFFEFF8813000070B50124036A026A0B
:104CF000A24302624468164A856915400A68154352
:104D0000022293438A681343124A904205D0124EFE
:104D1000B04202D0114EB04213D10826B343CE6840
:104D200033430426B343904205D00B4A904202D04D
:104D30000A4A904205D10A4A8E6922404C6934439E
:104D400014434A68446085614263036270BDC04693
:104D50008CFFFEFF002C0140004401400048014050
:104D6000FFFCFFFF70B5174A056A036A1340036230
:104D70004268154BC4691C400B681C43134B1D4013
:104D80008B681B022B43124DA8420ED1114D1D40C2
:104D9000CB681B022B43104D2B40104D4E69154024
:104DA0008A69324312012A4305E00D4DA842F4D02E
:104DB0000C4DA842F1D042604A68C461C2630362EC
:104DC00070BDC046FFFEFFFF8CFFFEFFFFFDFFFF33
:104DD000002C0140FFF7FFFFFFFBFFFFFFCFFFFFAE
:104DE000004401400048014030B5124A046A036A99
:104DF000114D134003624368C2692A400D682D02B9
:104E000015430E4A14408A68120322430C4CA042F8
:104E100005D00C4CA04202D00B4CA04204D10B4C4C
:104E20001C404B699B01234343604B68C56103648D
:104E3000026230BDFFEFFFFFFF8CFFFEFFDFFFFFD1
:104E4000002C01400044014000480140FFBFFFFF2B
:104E500070B5066A104C036A104A23400362436827
:104E6000456D15400A6815430D4A16408A681204BC
:104E700032430C4EB04205D00B4EB04202D00B4E26
:104E8000B04203D11C404B691B02234343604B6873
:104E900045658365026270BDFFFFFEFF8FFFFEFF69
:104EA000FFFFFDFF002C014000440140004801408D
:104EB00030B5124A046A036A114D13400362436815
:104EC000426D2A400D682D0215430E4A14408A682F
:104ED000120522430C4CA04205D00C4CA04202D03B
:104EE0000B4CA04204D10B4C1C404B699B0223434A
:104EF00043604B684565C365026230BDFFFFEFFF4D
:104F0000FF8FFFFEFFFFDFFF002C01400044014048
:104F100000480140FFFFFBFF01000300012010B526
:104F20003D310C78E2B2844218D1001808701B6839
:104F3000D9681143D9600B498B4202D00A498B4290
:104F40000DD19A6809490A40062A06D007398A42D3
:104F500003D0012219680A431A60002010BD1968A5
:104F6000F9E7C046002C01400004004007000100A2
:104F70007047704770477047704770470222036858
:104F800070B5DD681E69040016420DD015420BD0C5
:104F9000053A1A61043202779B699B0700D17CE0D5
:104FA000FFF7E9FF0023237704231E4212D01D429E
:104FB00010D00522236852421A61073222779A697B
:104FC000C0239B0020001A4200D16CE0FFF7D3FF02
:104FD0000023237708231E420FD01D420DD0092243
:104FE000236852421A610D322277DB6920009B0749
:104FF0005FD0FFF7C0FF0023237710231E4211D09C
:105000001D420FD01122236852421A6119322277B1
:10501000DA69C0239B0020001A4250D0FFF7ABFF93
:105020000023237701231E4208D01D4206D002220E
:105030002368524220001A61FEF734F880231E4292
:1050400008D01D4206D081222368524220001A61F6
:1050500000F0ABFBF30507D52B0605D523681B4AEB
:1050600020001A6100F0A2FB40231E4208D01D421E
:1050700006D041222368524220001A61FFF77DFFCB
:1050800020231E4208D01D4206D02122236852420E
:1050900020001A6100F088FB70BDFFF76BFF200055
:1050A000FFF76AFF7EE7FFF765FF2000FFF764FF69
:1050B0008EE7FFF75FFF2000FFF75EFF9BE7FFF73C
:1050C00059FF2000FFF758FFAAE7C046FFFEFFFF89
:1050D000194A10B50368904202D0184CA04208D17A
:1050E0007024A3434C68234390420BD0134CA0423E
:1050F00008D0134CA04205D0124CA04202D0124C52
:10510000A04203D1114C1C40CB6823438024A3430D
:105110004C69234303608B68C3620B6883629042CF
:1051200005D0084B984202D0074B984201D10B6939
:1051300003630123436110BD002C014000040040C3
:10514000002000400044014000480140FFFCFFFFF8
:1051500070B504000120002C23D025003D352B78AC
:10516000DAB2002B05D123003C3320001A70FEF781
:10517000B3FB02232B702068211DFFF7A9FF22003B
:10518000012300204832137047340A3A13705370D9
:105190009370D370137153719371D3711372237021
:1051A0002B7070BD70B504000120002C23D02500A9
:1051B0003D352B78DAB2002B05D123003C3320009B
:1051C0001A70FFF7D5FE02232B702068211DFFF710
:1051D0007FFF2200012300204832137047340A3A2F
:1051E000137053709370D370137153719371D371A3
:1051F000137223702B7070BD70B504000120002C59
:1052000023D025003D352B78DAB2002B05D12300C1
:105210003C3320001A70FFF7ACFE02232B7020688D
:10522000211DFFF755FF2200012300204832137093
:1052300047340A3A137053709370D37013715371DB
:105240009371D371137223702B7070BD102270B5DF
:10525000056A036A164C93430362426883692340DC
:105260000C6824021C4320239D438B681B012B43A5
:10527000104DA8420FD18025AB431E00CB68403DA6
:105280001B013343AB430C4D4E6915408A693243D1
:1052900092002A4305E0094DA842F4D0084DA842E7
:1052A000F1D042604A6884618263036270BDC04687
:1052B000FF8CFFFE002C0140FFF3FFFF0044014084
:1052C0000048014070B504003C34257803000220FA
:1052D000012D0BD00C2A1FD009D8042A14D0082A7B
:1052E00016D0002A0BD001200023237070BD102A95
:1052F00016D0142AF7D11868FFF7DAFD02E0186813
:10530000FFF7F2FC0020EFE71868FFF79FFFF9E7CF
:105310001868FFF727FDF5E71868FFF765FDF1E767
:105320001868FFF795FDEDE7F8B507003C37150065
:105330003A7803000C000220012A0CD001383870A2
:105340000C2D51D008D8042D2DD0082D3CD0002D87
:1053500017D000233B70F8BD102D58D0142DF8D174
:105360001D682800FFF7A4FD80236A6D1B0113430D
:105370006B656B6D2E4A13406B6523696A6D1B026A
:1053800053E01D682800FFF7AFFC0823AA69134308
:105390000422AB61AB699343AB61AB6922691343F0
:1053A000AB610020D5E71D682800FFF74FFF802381
:1053B000AA691B011343AB61AB691D4A1340AB6182
:1053C0002369AA691B02EAE71E683000FFF7CAFCDE
:1053D0000422F3691D43F561F3699343F361F369B3
:1053E00022691343F361DCE71D682800FFF7FCFC2A
:1053F0008023EA691B011343EB61EB690C4A1340FC
:10540000EB612369EA691B021343EB61C9E71D687D
:105410002800FFF71DFD08236A6D134304226B6506
:105420006B6D93436B656B6D226913436B65B8E7D6
:10543000FFFBFFFF30B58468034D0A431B022C407D
:1054400013432343836030BDFF00FFFFF8B5050021
:1054500002223C352C7803001000012C1BD01E00CA
:1054600001383D36287032701C68414AA3681340E9
:10547000A3600B68602B4ED02DD8402B62D013D880
:10548000202B0BD008D810221900914306D00123FD
:10549000337000232B70F8BD302BF8D1A26835494A
:1054A0000A401343072228E0502BF0D14A68CB680A
:1054B000216A276A1B0187432762F027A069B84346
:1054C00003430A2081430A43A3612262294BA26855
:1054D0001A40572311E08022520193420FD08022BC
:1054E000920193420DD0702BD1D1CB684A68200035
:1054F0008968FFF79FFF7723A2681343A36000200A
:10550000C5E7CB684A6820008968FFF793FF8023CE
:10551000A268DB01F1E710274B68CA68216A206A9C
:105520001203B8432062A069134F1B0138400243A5
:10553000A02081430B43A2612362A2680D4B1A4055
:105540006723DAE74A68CB68216A276A1B01874329
:105550002762F027A069B84303430A2081430A4326
:10556000A3612262034BA2681A404723C5E7C046E5
:105570008800CEFF8FFFCFFFFF0FFFFF1F2310B567
:10558000012419408C408A40036AA3430362036AE2
:105590001A43026210BD0000020010B508291CD099
:1055A00006D800290BD0042914D01300433308E097
:1055B0000C2915D01029F8D10300423301E0030073
:1055C0003E331B78013B581E8341DBB20120002B88
:1055D00009D010BD03003F33F3E703004033F0E789
:1055E00003004133EDE70223082933D006D8002910
:1055F0000BD004292BD01000433008E00C292CD00C
:105600001029F8D11000423001E010003E30037044
:10561000146801222000FFF7B1FF154A94421FD001
:10562000144B9C421CD0144B9C4219D0134B9C42EF
:1056300007D1A368124A1340062B06D0073A9342BB
:1056400003D001232268134323600020C1E7100028
:105650003F30DCE710004030D9E710004130D6E79A
:105660008023616C1B020B4363649442E1D0DDE74D
:10567000002C01400044014000480140000400406B
:105680000700010010B5FFF787FF10BDF0B504005B
:1056900002223C34257803001000012D1FD01D008C
:1056A0003D352A701A680E4E53689068B24203D195
:1056B0000C4F3B404F683B437027BB430F683B4355
:1056C0005360B24202D0084B9A4204D180239843DF
:1056D0008B6818439060012300202B702070F0BD70
:1056E000002C0140FFFF0FFF0004004010B5040034
:1056F0003C34237802000220012B39D01D48CB68AE
:1057000012680340886803431B480340486803430A
:105710001A480340086803431948034008690343D3
:10572000184803404869034317480340086B034384
:10573000164803408869000403431548824214D187
:1057400014481840CB691843134B18408B6A1B054B
:10575000034312480340086A034311480340486A60
:10576000C96A03430F4803400B4300205364207071
:1057700010BDC046FFFCFFFFFFFBFFFFFFF7FFFF71
:10578000FFEFFFFFFFDFFFFFFFBFFFFFFFFFF0FFA8
:10579000002C0140FFFFFFEFFFFF0FFFFFFFFFFEA9
:1057A000FFFFFFFDFFFFFFDF7047704770470300FB
:1057B0008218934200D1704719700133F9E7000055
:1057C000014B18687047C0461000002070B50026D5
:1057D0000C4C0D4D641BA410A64209D1002600F00C
:1057E00011FA0A4C0A4D641BA410A64205D170BDE3
:1057F000B300EB5898470136EEE7B300EB589847F3
:105800000136F2E72C5D00082C5D0008305D0008D1
:105810002C5D0008002310B59A4200D110BDCC5C6D
:10582000C4540133F8E70000F8B504000D0000F09F
:1058300037F8220006000F002B0020002900FDF79A
:10584000A9FA002815D10022002320002900FAF728
:1058500011FD00280DD10022002320002900FAF7B5
:10586000EFFC002808D0FFF7ABFF22230026074FEC
:10587000036030003900F8BDFFF7A2FF2123036069
:10588000034800F007F806000F00F2E70000F0FF01
:10589000285D0008002001497047C0460000F87FDD
:1058A0008023F0B55B030E008DB0994223DA4B00E4
:1058B0005B08034307D1002200230020B449FBF713
:1058C000C1FF0DB0F0BD002906DA02000B00FCF7A5
:1058D000C5FE00220023F2E7AE4B0022FCF7F6FBE8
:1058E00036230E005B42AC4A964206DD02000B00F6
:1058F000FBF744FCE5E70023F5E7A84C3215121945
:105900003603A74CD218330B02931B19802464036F
:105910002340A44C029D5C401B159B18254300228C
:10592000009329009F4BFCF799FE029B060002336F
:105930001B030F0000221B0B022B64DC0023FAF771
:105940007FFC002819D0009B002B00D11CE118001F
:10595000FDF77EFA944A954B04000D00FCF7B6FB68
:10596000934A06000F00934B20002900FCF7AEFB82
:1059700002000B0030003900BAE78F4A8F4B30002D
:105980003900FCF7A3FB02000B0000208C49FCF758
:1059900065FE320004000D003B0030003900FCF7CA
:1059A00095FB0B00020029002000FCF78FFB009BF9
:1059B00002900391002B06D102000B003000390049
:1059C000FCF74CFE7DE70098FDF742FA764A774BEC
:1059D00004000D00FCF77AFB754A00900191754BAD
:1059E00020002900FCF772FB02000B0002980399CB
:1059F000FCF734FE32003B00FCF730FE02000B00E7
:105A000000980199DCE78023DB05FBF7B7FB020078
:105A10000B0030003900FBF715FF0490059100984A
:105A2000FDF716FA049A059B0690079110001900DD
:105A3000FCF74CFB634A029B9446634402000B93C1
:105A40000B0008900991FCF741FB04000D005E4A31
:105A50005E4BFCF73BFB5E4A5E4BFBF78FFB220085
:105A60002B00FCF733FB5C4A5C4BFBF787FB220007
:105A70002B00FCF72BFB5A4A5A4BFBF77FFB089A8B
:105A8000099BFCF723FB584A08900991574B2000CB
:105A90002900FCF71BFB564A564BFBF76FFB220015
:105AA0002B00FCF713FB544A544BFBF767FB220017
:105AB0002B00FCF70BFB02000B0008980999FBF781
:105AC0005DFB029A4E4B04009B1A0B9A0D00134388
:105AD000002B34DD00223A4B30003900FCF7F6FA97
